:100000000C942A000C9434000C9434000C943400AA
:100010000C9434000C9434000C9434000C94340090
:100020000C9434000C9434000C9434000C94340080
:100030000C9434000C9434000C9434000C94340070
:100040000C9434000C9434000C9434000C94340060
:100050000C94340011241FBECFE5D4E0DEBFCDBF29
:100060000E9445000C9471000C940000E199FECFB1
:100070009FBB8EBB6DBBE29AE19A0895E199FECFDA
:100080009FBB8EBBE09A8DB308958FEF87BB88BB73
:10009000C0E0D0E000E010E002C0C02FD12F68B374
:1000A000CE010E9436009FEF23ED80E39150204067
:1000B0008040E1F700C00000CE010E943E0098B3EE
:1000C000892788BB9FEF23ED80E39150204080403B
:1000D000E1F700C000002296C11592E0D907E8F6CA
:0600E000DECFF894FFCF13
:00000001FF
