:100000000C942A000C943C000C943C000C943C0092
:100010000C943C000C943C000C943C000C943C0070
:100020000C943C000C943C000C943C000C943C0060
:100030000C943C000C943C000C943C000C943C0050
:100040000C943C000C943C000C943C000C943C0040
:100050000C943C0011241FBECFE5D8E0DEBFCDBF1D
:1000600020E0A0E6B0E001C01D92A236B207E1F7A1
:100070000E946C000C947E000C9400008091610042
:1000800083B984E886BF81B1887F803CE1F7089519
:1000900094EC04C096BF06B607FEFDCF81B1887F01
:1000A000883AC1F7089584EC86BF06B607FEFDCFF7
:1000B00081B1887F8038E1F783B18093600088BB8D
:1000C000089594EC04C096BF06B607FEFDCF81B13B
:1000D000887F8036C1F708958FEF87BB80E282B9B1
:1000E0000E9461000E94530080916000809580937F
:1000F00061000E9448000E943E00F2CFF894FFCFBA
:00000001FF
