:100000000C942A000C9434000C9434000C943400AA
:100010000C9434000C9434000C9434000C94340090
:100020000C9434000C9434000C9434000C94340080
:100030000C9434000C9434000C9434000C94340070
:100040000C9434000C9434000C9434000C94340060
:100050000C94340011241FBECFE5D8E0DEBFCDBF25
:100060000E9449000C9458000C94000086B78460EC
:1000700086BF88E480B9089584EA86BF06B607FE85
:10008000FDCF089583B984E886BF06B607FEFDCF8D
:1000900008958FEF87BB85E588BBD4E9C8B30E947C
:1000A00036000E943C008C2F0E944200D6BFF6CF43
:0400B000F894FFCFF2
:00000001FF
