S01100006779726F73636F70652E7372656338
S11300000C942A000C9447000C9447000C9447006D
S11300100C9447000C9447000C9447000C94470040
S11300200C9447000C9447000C9447000C94470030
S11300300C9447000C9447000C9447000C94470020
S11300400C9447000C9447000C9447000C94470010
S11300500C94470011241FBECFE5D8E0DEBFCDBF0E
S113006010E0A0E6B0E0EEE3F1E002C005900D92EE
S1130070A236B107D9F720E0A2E6B0E001C01D9294
S1130080A336B207E1F70E9476000C949D000C940D
S1130090000081E080B911B8089583B984E886BF6F
S11300A006B607FEFDCF81B1887F8034E1F708955D
S11300B081E080B986B7846A86BF06B607FEFDCFA5
S11300C081B1887F8830E1F7089584E886BF06B659
S11300D007FEFDCF81B1887F8835E1F783B1809336
S11300E0620008955D9BFECF8CB90895CFEFC7BB26
S11300F00E94490081B3C1BBC2BB8AB188618AB97D
S113010080B58E6880BD87E689B910BC0E9458000E
S11301109091600080916100890F0E944D000E94BF
S113012065000E9472002FEF85EA9EE02150804016
S11101309040E1F700C00000E9CFF894FFCF43
S105013E01209A
S9030000FC
