:100000000C942A000C9434000C9434000C943400AA
:100010000C9434000C9434000C9434000C94340090
:100020000C9434000C9434000C9434000C94340080
:100030000C9434000C9434000C9434000C94340070
:100040000C9434000C9434000C9434000C94340060
:100050000C94340011241FBECFE5D4E0DEBFCDBF29
:100060000E947E000C94BB000C9400008BE088BBC7
:100070001BBC1ABC88EC90E099BD88BD2FEF83EDC6
:1000800090E3215080409040E1F700C000000895C7
:100090008EE088BB88EC90E09BBD8ABD19BC18BC83
:1000A0002FEF83ED90E3215080409040E1F700C0B6
:1000B000000008958AE088BB88E790E09BBD8ABD78
:1000C00099BD88BD2FEF83ED90E321508040904093
:1000D000E1F700C00000089585E088BB88E790E064
:1000E0009BBD8ABD99BD88BD2FEF83ED90E3215064
:1000F00080409040E1F700C00000089580E487B997
:1001000087EC86B91ABA8FEF87BB81BB83B78B6741
:1001100083BF8FB5806F8FBD8EB583608EBD369ADD
:100120003699FECF84B195B124B135B128BB2FEFFC
:1001300039E648E1215030404040E1F700C000007E
:100140008F3F910509F01CF40E943600E8CF81151D
:1001500022E092071CF40E944800E1CF811533E0B1
:1001600093071CF40E945A00DACF81159440BCF624
:0A0170000E946C00D4CFF894FFCF7A
:00000001FF
