S01700004763634170706C69636174696F6E312E737265635B
S11300000C942A000C9434000C9434000C943400A6
S11300100C9434000C9434000C9434000C9434008C
S11300200C9434000C9434000C9434000C9434007C
S11300300C9434000C9434000C9434000C9434006C
S11300400C9434000C9434000C9434000C9434005C
S11300500C94340011241FBECFE5D8E0DEBFCDBF21
S11300600E9436000C949C000C9400008FEF8ABB15
S1130070EFE071E062E054E048E039E026E095E02A
S11300808AE0EBBBAFEFB7EAF1E6A150B040F04035
S1130090E1F700C000007BBBAFEFB7EAF1E6A15087
S11300A0B040F040E1F700C000006BBBAFEFB7EA2F
S11300B0F1E6A150B040F040E1F700C000005BBBA6
S11300C0AFEFB7EAF1E6A150B040F040E1F700C06D
S11300D000004BBBAFEFB7EAF1E6A150B040F040EF
S11300E0E1F700C000003BBBAFEFB7EAF1E6A15077
S11300F0B040F040E1F700C000002BBBAFEFB7EA1F
S1130100F1E6A150B040F040E1F700C000009BBB15
S1130110AFEFB7EAF1E6A150B040F040E1F700C01C
S113012000008BBBAFEFB7EAF1E6A150B040F0405E
S10F0130E1F700C00000A5CFF894FFCF59
S9030000FC
