S01700004763634170706C69636174696F6E372E7372656355
S11300000C942A000C943F000C943F000C943F0085
S11300100C943F000C943F000C943F000C943F0060
S11300200C943F000C943F000C943F000C943F0050
S11300300C943F000C943F000C943F000C943F0040
S11300400C943F000C943F000C943F000C943F0030
S11300500C943F0011241FBECFE5D4E0DEBFCDBF1A
S113006010E0A0E6B0E0E4EEF1E002C005900D92ED
S1130070A037B107D9F70E94BE000C94F0000C948D
S11300800000982F907F98BBC098C198C29AEFE95E
S1130090FFE03197F1F700C00000C298EFE9FFE0FC
S11300A03197F1F700C00000F0E18F9FC0011124E7
S11300B088BBC098C198C29A8FE99FE00197F1F775
S11300C000C00000C298EFE9FFE03197F1F700C0EB
S11300D000000895982F907F98BBC09AC198C29A47
S11300E0EFE9FFE03197F1F700C00000C298EFE9B3
S11300F0FFE03197F1F700C00000F0E18F9FC001ED
S1130100112488BBC09AC198C29A8FE99FE00197D5
S1130110F1F700C00000C298EFE9FFE03197F1F772
S113012000C00000089581E00E944100089588E223
S11301300E9441000E9493008FE00E94410086E0EB
S11301400E94410008950F931F93CF93DF93FC0106
S113015001900020E9F731971E2F181B51F0082F4A
S1130160C02FD92F89910E946A008C2F801B811780
S1130170C8F3DF91CF911F910F910895CF93DF932F
S1130180CDB7DEB72F970FB6F894DEBF0FBECDBF45
S11301900E9497008FE0E0E6F0E0DE011196019006
S11301A00D928A95E1F71ABA8FEF88BB899A889ADB
S11301B0CE0101960E94A3002FEF83ED90E321501E
S11301C080409040E1F700C0000080E090E02F966E
S11301D00FB6F894DEBF0FBECDBFDF91CF91089567
S10701E0F894FFCFBD
S11301E4726167686176736F6E6176616E65000033
S9030000FC
