:100000000C942A000C9434000C9434000C943400AA
:100010000C9434000C9434000C9434000C94340090
:100020000C9434000C9434000C9434000C94340080
:100030000C9434000C9434000C9434000C94340070
:100040000C9434000C9434000C9434000C94340060
:100050000C94340011241FBECFE5D8E0DEBFCDBF25
:100060000E9436000C9453000C940000D198D09A52
:100070008BB38FEF8BBBC9990BC0D8982FEF81EE54
:1000800094E0215080409040E1F700C00000F3CFA1
:10009000D89A2FEF81EE94E0215080409040E1F714
:0A00A00000C00000E8CFF894FFCF85
:00000001FF
