S01700004763634170706C69636174696F6E332E7372656359
S11300000C942A000C9434000C9434000C943400A6
S11300100C9434000C9434000C9434000C9434008C
S11300200C9434000C9434000C9434000C9434007C
S11300300C9434000C9434000C9434000C9434006C
S11300400C9434000C9434000C9434000C9434005C
S11300500C94340011241FBECFE5D4E0DEBFCDBF25
S11300600E9436000C94E8000C9400008FEF87BBCC
S113007031E822E494E288E14FEF5FEF69E678E14A
S1130080515060407040E1F700C0000038BB5FEFA2
S113009069E678E1515060407040E1F700C000002B
S11300A028BB5FEF69E678E1515060407040E1F7AA
S11300B000C0000098BB5FEF69E678E151506040F2
S11300C07040E1F700C0000088BB5FEF69E678E1AB
S11300D0515060407040E1F700C0000088BB5FEF02
S11300E069E678E1515060407040E1F700C00000DB
S11300F098BB5FEF69E678E1515060407040E1F7EA
S113010000C0000028BB5FEF69E678E15150604011
S11301107040E1F700C0000038BB5FEF69E678E1AA
S1130120515060407040E1F700C0000048BB5FEFF1
S113013069E678E1515060407040E1F700C000008A
S113014038BB5FEF69E678E1515060407040E1F7F9
S113015000C0000028BB5FEF69E678E151506040C1
S11301607040E1F700C0000098BB5FEF69E678E1FA
S1130170515060407040E1F700C0000088BB5FEF61
S113018069E678E1515060407040E1F700C000003A
S113019088BB5FEF69E678E1515060407040E1F759
S11301A000C0000098BB5FEF69E678E15150604001
S11301B07040E1F700C0000028BB5FEF69E678E11A
S11301C0515060407040E1F700C0000038BB55CF8B
S10701D0F894FFCFCD
S9030000FC
