S01700004763634170706C69636174696F6E342E7372656358
S11300000C942A000C9434000C9434000C943400A6
S11300100C9434000C9434000C9434000C9434008C
S11300200C9434000C9434000C9434000C9434007C
S11300300C9434000C9434000C9434000C9434006C
S11300400C9434000C9434000C9434000C9434005C
S11300500C94340011241FBECFE5D4E0DEBFCDBF25
S11300600E9436000C944B000C9400008FEF8ABB66
S113007081BB8FB5816A8FBD8EB58B608EBD2AE042
S113008030E08FEF90E03BBD2ABD99BD88BD42B3FF
S10D0090456042BBF8CFF894FFCF9F
S9030000FC
