:100000000C942A000C9434000C9434000C943400AA
:100010000C9434000C9434000C9434000C94340090
:100020000C9434000C9434000C9434000C94340080
:100030000C9434000C9434000C9434000C94340070
:100040000C9434000C9434000C9434000C94340060
:100050000C94340011241FBECFE5D8E0DEBFCDBF25
:100060000E9436000C946F000C9400008FB5826AD9
:100070008FBD8EB58B618EBD88E893E197BD86BD3F
:1000800081B38FEF81BB82BB5E9A9AB198619AB9B6
:1000900090B59E6490BD80BD19B861E070E05F9B33
:1000A000FECF8CB15D9BFECF8CB926B537B5462F00
:1000B0008F3F08F4472F50E0429FC001439F900DAF
:1000C000529F900D11249BBD8ABD2FE38DE093E0DC
:1000D000215080409040E1F700C00000E0CFF8944C
:0200E000FFCF50
:00000001FF
