S01800004763634170706C69636174696F6E31362E7372656324
S11300000C942A000C943C000C943C000C943C008E
S11300100C943C000C943C000C943C000C943C006C
S11300200C943C000C943C000C943C000C943C005C
S11300300C943C000C943C000C943C000C943C004C
S11300400C943C000C943C000C943C000C943C003C
S11300500C943C0011241FBECFE5D8E0DEBFCDBF19
S113006020E0A0E6B0E001C01D92A236B207E1F79D
S11300700E946B000C94D1000C94000080916100EC
S113008083B984E886BF81B1887F803CE1F7089515
S113009094EC04C096BF06B607FEFDCF81B1887FFD
S11300A0883AC1F7089584EC86BF06B607FEFDCFF3
S11300B081B1887F8038E1F783B18093600008952F
S11300C094EC04C096BF06B607FEFDCF81B1887FCD
S11300D08036C1F708958FEF87BB80E282B9CFEFF6
S11300E018BA2FEF89E698E1215080409040E1F75B
S11300F000C000000E946000C8BB2FEF89E698E1B1
S1130100215080409040E1F700C0000018BA2FEF62
S113011089E698E1215080409040E1F700C000005A
S11301200E94530018BA2FEF89E698E121508040CD
S11301309040E1F700C000008091600080958093BA
S11301406100C8BB2FEF89E698E1215080409040C0
S1130150E1F700C000008091600088BB2FEF89E6C2
S113016098E1215080409040E1F700C0000018BAA7
S11301702FEF89E698E1215080409040E1F700C0DC
S1130180000083B188BB2FEF89E698E121508040BD
S11301909040E1F700C000000E9448000E943E0029
S10901A09FCFF894FFCF8D
S9030000FC
