:100000000C942A000C9434000C9434000C943400AA
:100010000C9434000C9434000C9434000C94340090
:100020000C9434000C9434000C9434000C94340080
:100030000C9434000C9434000C9434000C94340070
:100040000C9434000C9434000C9434000C94340060
:100050000C94340011241FBECFE5D8E0DEBFCDBF25
:100060000E943D000C945D000C94000084EC86BF5F
:1000700006B607FEFDCF83B108958FEF87BB85E5F8
:1000800088BB0E94360088BB88B3882361F02FEFBD
:1000900089E698E1215080409040E1F700C00000DF
:1000A00088B38111F4CF2FEF87EA91E62150804089
:0E00B0009040E1F700C00000E4CFF894FFCFCD
:00000001FF
