:100000000C942A000C9447000C9447000C94470071
:100010000C9447000C9447000C9447000C94470044
:100020000C9447000C9447000C9447000C94470034
:100030000C9447000C9447000C9447000C94470024
:100040000C9447000C9447000C9447000C94470014
:100050000C94470011241FBECFE5D8E0DEBFCDBF12
:1000600010E0A0E6B0E0E6EAF1E002C005900D92F3
:10007000A436B107D9F720E0A4E6B0E001C01D9294
:10008000A636B207E1F70E948C000C94D1000C94C4
:10009000000081E080B911B8089584EA86BF06B6F1
:1000A00007FEFDCF81B1887F8830E1F7089583B9DD
:1000B00084E886BF06B607FEFDCF81B1887F883110
:1000C000E1F7089583B984E886BF06B607FEFDCF41
:1000D00081B1887F8034E1F7089583B984E886BFD1
:1000E00006B607FEFDCF81B1887F8832E1F708951B
:1000F00084E886BF06B607FEFDCF81B1887F8835CC
:10010000E1F783B18093650088BB089584E986BFD9
:1001100006B604FEFDCF08952FEF87EA91E6215041
:1001200080409040E1F700C000008FEF87BB0E9445
:100130004900C1E080916000811102C0C09360005D
:100140000E944D009091640080916200890F0E948E
:100150005700809160000E946D000E9486008FE928
:100160009FE00197F1F700C000000E944D009091C0
:10017000610080916200890F0E9462000E947800F5
:100180000E9486009FEF21EE84E091502040804045
:10019000E1F700C0000080916000880F809360004C
:0601A000C9CFF894FFCF67
:0401A6000101200033
:00000001FF
